{
  "contractName": "MyNFTContract",
  "abi": [
    {
      "inputs": [],
      "stateMutability": "nonpayable",
      "type": "constructor"
    },
    {
      "anonymous": false,
      "inputs": [
        {
          "indexed": true,
          "internalType": "address",
          "name": "owner",
          "type": "address"
        },
        {
          "indexed": true,
          "internalType": "address",
          "name": "approved",
          "type": "address"
        },
        {
          "indexed": true,
          "internalType": "uint256",
          "name": "tokenId",
          "type": "uint256"
        }
      ],
      "name": "Approval",
      "type": "event"
    },
    {
      "anonymous": false,
      "inputs": [
        {
          "indexed": true,
          "internalType": "address",
          "name": "owner",
          "type": "address"
        },
        {
          "indexed": true,
          "internalType": "address",
          "name": "operator",
          "type": "address"
        },
        {
          "indexed": false,
          "internalType": "bool",
          "name": "approved",
          "type": "bool"
        }
      ],
      "name": "ApprovalForAll",
      "type": "event"
    },
    {
      "anonymous": false,
      "inputs": [
        {
          "indexed": true,
          "internalType": "address",
          "name": "minter",
          "type": "address"
        },
        {
          "indexed": true,
          "internalType": "address",
          "name": "to",
          "type": "address"
        },
        {
          "indexed": false,
          "internalType": "uint256",
          "name": "parentId",
          "type": "uint256"
        },
        {
          "indexed": false,
          "internalType": "uint256",
          "name": "tokenId",
          "type": "uint256"
        }
      ],
      "name": "Minted",
      "type": "event"
    },
    {
      "anonymous": false,
      "inputs": [
        {
          "indexed": true,
          "internalType": "address",
          "name": "from",
          "type": "address"
        },
        {
          "indexed": true,
          "internalType": "address",
          "name": "to",
          "type": "address"
        },
        {
          "indexed": true,
          "internalType": "uint256",
          "name": "tokenId",
          "type": "uint256"
        }
      ],
      "name": "Transfer",
      "type": "event"
    },
    {
      "inputs": [
        {
          "internalType": "address",
          "name": "to",
          "type": "address"
        },
        {
          "internalType": "uint256",
          "name": "parentId",
          "type": "uint256"
        },
        {
          "internalType": "string",
          "name": "name",
          "type": "string"
        },
        {
          "internalType": "string",
          "name": "description",
          "type": "string"
        },
        {
          "internalType": "string",
          "name": "image",
          "type": "string"
        },
        {
          "internalType": "uint256",
          "name": "value",
          "type": "uint256"
        }
      ],
      "name": "mint",
      "outputs": [
        {
          "internalType": "uint256",
          "name": "",
          "type": "uint256"
        }
      ],
      "stateMutability": "nonpayable",
      "type": "function"
    },
    {
      "inputs": [
        {
          "internalType": "uint256",
          "name": "tokenId",
          "type": "uint256"
        }
      ],
      "name": "parentOf",
      "outputs": [
        {
          "internalType": "uint256",
          "name": "",
          "type": "uint256"
        }
      ],
      "stateMutability": "view",
      "type": "function",
      "constant": true
    },
    {
      "inputs": [
        {
          "internalType": "uint256",
          "name": "tokenId",
          "type": "uint256"
        }
      ],
      "name": "childrenOf",
      "outputs": [
        {
          "internalType": "uint256[]",
          "name": "",
          "type": "uint256[]"
        }
      ],
      "stateMutability": "view",
      "type": "function",
      "constant": true
    },
    {
      "inputs": [
        {
          "internalType": "uint256",
          "name": "tokenId",
          "type": "uint256"
        }
      ],
      "name": "isRoot",
      "outputs": [
        {
          "internalType": "bool",
          "name": "",
          "type": "bool"
        }
      ],
      "stateMutability": "view",
      "type": "function",
      "constant": true
    },
    {
      "inputs": [
        {
          "internalType": "uint256",
          "name": "tokenId",
          "type": "uint256"
        }
      ],
      "name": "isLeaf",
      "outputs": [
        {
          "internalType": "bool",
          "name": "",
          "type": "bool"
        }
      ],
      "stateMutability": "view",
      "type": "function",
      "constant": true
    },
    {
      "inputs": [
        {
          "internalType": "address",
          "name": "to",
          "type": "address"
        },
        {
          "internalType": "uint256",
          "name": "tokenId",
          "type": "uint256"
        }
      ],
      "name": "approve",
      "outputs": [],
      "stateMutability": "nonpayable",
      "type": "function"
    },
    {
      "inputs": [
        {
          "internalType": "address",
          "name": "owner",
          "type": "address"
        }
      ],
      "name": "balanceOf",
      "outputs": [
        {
          "internalType": "uint256",
          "name": "balance",
          "type": "uint256"
        }
      ],
      "stateMutability": "view",
      "type": "function",
      "constant": true
    },
    {
      "inputs": [
        {
          "internalType": "uint256",
          "name": "tokenId",
          "type": "uint256"
        }
      ],
      "name": "getApproved",
      "outputs": [
        {
          "internalType": "address",
          "name": "operator",
          "type": "address"
        }
      ],
      "stateMutability": "view",
      "type": "function",
      "constant": true
    },
    {
      "inputs": [
        {
          "internalType": "address",
          "name": "owner",
          "type": "address"
        },
        {
          "internalType": "address",
          "name": "operator",
          "type": "address"
        }
      ],
      "name": "isApprovedForAll",
      "outputs": [
        {
          "internalType": "bool",
          "name": "",
          "type": "bool"
        }
      ],
      "stateMutability": "view",
      "type": "function",
      "constant": true
    },
    {
      "inputs": [
        {
          "internalType": "uint256",
          "name": "tokenId",
          "type": "uint256"
        }
      ],
      "name": "ownerOf",
      "outputs": [
        {
          "internalType": "address",
          "name": "owner",
          "type": "address"
        }
      ],
      "stateMutability": "view",
      "type": "function",
      "constant": true
    },
    {
      "inputs": [
        {
          "internalType": "address",
          "name": "from",
          "type": "address"
        },
        {
          "internalType": "address",
          "name": "to",
          "type": "address"
        },
        {
          "internalType": "uint256",
          "name": "tokenId",
          "type": "uint256"
        }
      ],
      "name": "safeTransferFrom",
      "outputs": [],
      "stateMutability": "nonpayable",
      "type": "function"
    },
    {
      "inputs": [
        {
          "internalType": "address",
          "name": "from",
          "type": "address"
        },
        {
          "internalType": "address",
          "name": "to",
          "type": "address"
        },
        {
          "internalType": "uint256",
          "name": "tokenId",
          "type": "uint256"
        },
        {
          "internalType": "bytes",
          "name": "data",
          "type": "bytes"
        }
      ],
      "name": "safeTransferFrom",
      "outputs": [],
      "stateMutability": "nonpayable",
      "type": "function"
    },
    {
      "inputs": [
        {
          "internalType": "address",
          "name": "operator",
          "type": "address"
        },
        {
          "internalType": "bool",
          "name": "approved",
          "type": "bool"
        }
      ],
      "name": "setApprovalForAll",
      "outputs": [],
      "stateMutability": "nonpayable",
      "type": "function"
    },
    {
      "inputs": [
        {
          "internalType": "bytes4",
          "name": "interfaceId",
          "type": "bytes4"
        }
      ],
      "name": "supportsInterface",
      "outputs": [
        {
          "internalType": "bool",
          "name": "",
          "type": "bool"
        }
      ],
      "stateMutability": "view",
      "type": "function",
      "constant": true
    },
    {
      "inputs": [
        {
          "internalType": "address",
          "name": "from",
          "type": "address"
        },
        {
          "internalType": "address",
          "name": "to",
          "type": "address"
        },
        {
          "internalType": "uint256",
          "name": "tokenId",
          "type": "uint256"
        }
      ],
      "name": "transferFrom",
      "outputs": [],
      "stateMutability": "nonpayable",
      "type": "function"
    }
  ],
  "bytecode": "0x608060405234801561001057600080fd5b506001600581905550600160068190555061126a806100306000396000f3fe608060405234801561001057600080fd5b5060043610610112576000357c0100000000000000000000000000000000000000000000000000000000900480636f19951c116100b4578063cce3c13b11610083578063cce3c13b146102c3578063cfa3c132146102f3578063e527b96614610323578063e985e9c51461035357610112565b80636f19951c1461022b57806370a082311461025b578063a22cb4651461028b578063b88d4fde146102a757610112565b806323b872dd116100f057806323b872dd1461019357806342842e0e146101af57806355fbf8e7146101cb5780636352211e146101fb57610112565b806301ffc9a714610117578063081812fc14610147578063095ea7b314610177575b600080fd5b610131600480360381019061012c91906107d2565b610383565b60405161013e919061081a565b60405180910390f35b610161600480360381019061015c919061086b565b6103ed565b60405161016e91906108d9565b60405180910390f35b610191600480360381019061018c9190610920565b6103f4565b005b6101ad60048036038101906101a89190610960565b6103f8565b005b6101c960048036038101906101c49190610960565b6103fd565b005b6101e560048036038101906101e09190610af9565b610402565b6040516101f29190610be9565b60405180910390f35b6102156004803603810190610210919061086b565b6106bf565b60405161022291906108d9565b60405180910390f35b6102456004803603810190610240919061086b565b6106c6565b6040516102529190610cc2565b60405180910390f35b61027560048036038101906102709190610ce4565b6106cd565b6040516102829190610be9565b60405180910390f35b6102a560048036038101906102a09190610d3d565b6106d4565b005b6102c160048036038101906102bc9190610ddd565b6106d8565b005b6102dd60048036038101906102d8919061086b565b6106df565b6040516102ea919061081a565b60405180910390f35b61030d6004803603810190610308919061086b565b6106e6565b60405161031a9190610be9565b60405180910390f35b61033d6004803603810190610338919061086b565b6106ed565b60405161034a919061081a565b60405180910390f35b61036d60048036038101906103689190610e65565b6106f4565b60405161037a919061081a565b60405180910390f35b60007f897e2c73000000000000000000000000000000000000000000000000000000007bffffffffffffffffffffffffffffffffffffffffffffffffffffffff1916827bffffffffffffffffffffffffffffffffffffffffffffffffffffffff1916149050919050565b6000919050565b5050565b505050565b505050565b60008060008711156104305760065490506006600081548092919061042690610ed4565b919050555061044e565b60055490506005600081548092919061044890610ed4565b91905055505b6040518060c00160405280878152602001868152602001858152602001848152602001888152602001600067ffffffffffffffff811115610492576104916109ce565b5b6040519080825280602002602001820160405280156104c05781602001602082028036833780820191505090505b5081525060008083815260200190815260200160002060008201518160000190816104eb9190611139565b5060208201518160010190816105019190611139565b5060408201518160020190816105179190611139565b50606082015181600301556080820151816004015560a08201518160050190805190602001906105489291906106fc565b50905050876001600083815260200190815260200160002060006101000a81548173ffffffffffffffffffffffffffffffffffffffff021916908373ffffffffffffffffffffffffffffffffffffffff160217905550600360008973ffffffffffffffffffffffffffffffffffffffff1673ffffffffffffffffffffffffffffffffffffffff168152602001908152602001600020819080600181540180825580915050600190039060005260206000200160009091909190915055600087111561064a576000808881526020019081526020016000206005018190806001815401808255809150506001900390600052602060002001600090919091909150555b8773ffffffffffffffffffffffffffffffffffffffff163373ffffffffffffffffffffffffffffffffffffffff167f03f17d66ad3bf18e9412eb06582908831508cdb9b8da9cddb1431f645a5b863289846040516106a992919061120b565b60405180910390a3809150509695505050505050565b6000919050565b6060919050565b6000919050565b5050565b5050505050565b6000919050565b6000919050565b6000919050565b600092915050565b828054828255906000526020600020908101928215610738579160200282015b8281111561073757825182559160200191906001019061071c565b5b5090506107459190610749565b5090565b5b8082111561076257600081600090555060010161074a565b5090565b6000604051905090565b600080fd5b600080fd5b60007fffffffff0000000000000000000000000000000000000000000000000000000082169050919050565b6107af8161077a565b81146107ba57600080fd5b50565b6000813590506107cc816107a6565b92915050565b6000602082840312156107e8576107e7610770565b5b60006107f6848285016107bd565b91505092915050565b60008115159050919050565b610814816107ff565b82525050565b600060208201905061082f600083018461080b565b92915050565b6000819050919050565b61084881610835565b811461085357600080fd5b50565b6000813590506108658161083f565b92915050565b60006020828403121561088157610880610770565b5b600061088f84828501610856565b91505092915050565b600073ffffffffffffffffffffffffffffffffffffffff82169050919050565b60006108c382610898565b9050919050565b6108d3816108b8565b82525050565b60006020820190506108ee60008301846108ca565b92915050565b6108fd816108b8565b811461090857600080fd5b50565b60008135905061091a816108f4565b92915050565b6000806040838503121561093757610936610770565b5b60006109458582860161090b565b925050602061095685828601610856565b9150509250929050565b60008060006060848603121561097957610978610770565b5b60006109878682870161090b565b93505060206109988682870161090b565b92505060406109a986828701610856565b9150509250925092565b600080fd5b600080fd5b6000601f19601f8301169050919050565b7f4e487b7100000000000000000000000000000000000000000000000000000000600052604160045260246000fd5b610a06826109bd565b810181811067ffffffffffffffff82111715610a2557610a246109ce565b5b80604052505050565b6000610a38610766565b9050610a4482826109fd565b919050565b600067ffffffffffffffff821115610a6457610a636109ce565b5b610a6d826109bd565b9050602081019050919050565b82818337600083830152505050565b6000610a9c610a9784610a49565b610a2e565b905082815260208101848484011115610ab857610ab76109b8565b5b610ac3848285610a7a565b509392505050565b600082601f830112610ae057610adf6109b3565b5b8135610af0848260208601610a89565b91505092915050565b60008060008060008060c08789031215610b1657610b15610770565b5b6000610b2489828a0161090b565b9650506020610b3589828a01610856565b955050604087013567ffffffffffffffff811115610b5657610b55610775565b5b610b6289828a01610acb565b945050606087013567ffffffffffffffff811115610b8357610b82610775565b5b610b8f89828a01610acb565b935050608087013567ffffffffffffffff811115610bb057610baf610775565b5b610bbc89828a01610acb565b92505060a0610bcd89828a01610856565b9150509295509295509295565b610be381610835565b82525050565b6000602082019050610bfe6000830184610bda565b92915050565b600081519050919050565b600082825260208201905092915050565b6000819050602082019050919050565b610c3981610835565b82525050565b6000610c4b8383610c30565b60208301905092915050565b6000602082019050919050565b6000610c6f82610c04565b610c798185610c0f565b9350610c8483610c20565b8060005b83811015610cb5578151610c9c8882610c3f565b9750610ca783610c57565b925050600181019050610c88565b5085935050505092915050565b60006020820190508181036000830152610cdc8184610c64565b905092915050565b600060208284031215610cfa57610cf9610770565b5b6000610d088482850161090b565b91505092915050565b610d1a816107ff565b8114610d2557600080fd5b50565b600081359050610d3781610d11565b92915050565b60008060408385031215610d5457610d53610770565b5b6000610d628582860161090b565b9250506020610d7385828601610d28565b9150509250929050565b600080fd5b600080fd5b60008083601f840112610d9d57610d9c6109b3565b5b8235905067ffffffffffffffff811115610dba57610db9610d7d565b5b602083019150836001820283011115610dd657610dd5610d82565b5b9250929050565b600080600080600060808688031215610df957610df8610770565b5b6000610e078882890161090b565b9550506020610e188882890161090b565b9450506040610e2988828901610856565b935050606086013567ffffffffffffffff811115610e4a57610e49610775565b5b610e5688828901610d87565b92509250509295509295909350565b60008060408385031215610e7c57610e7b610770565b5b6000610e8a8582860161090b565b9250506020610e9b8582860161090b565b9150509250929050565b7f4e487b7100000000000000000000000000000000000000000000000000000000600052601160045260246000fd5b6000610edf82610835565b91507fffffffffffffffffffffffffffffffffffffffffffffffffffffffffffffffff8203610f1157610f10610ea5565b5b600182019050919050565b600081519050919050565b7f4e487b7100000000000000000000000000000000000000000000000000000000600052602260045260246000fd5b60006002820490506001821680610f6e57607f821691505b602082108103610f8157610f80610f27565b5b50919050565b60008190508160005260206000209050919050565b60006020601f8301049050919050565b60008160020a8302905092915050565b600060088302610fec7fffffffffffffffffffffffffffffffffffffffffffffffffffffffffffffffff82610fac565b610ff68683610fac565b95508019841693508086168417925050509392505050565b6000819050919050565b600061103361102e61102984610835565b61100e565b610835565b9050919050565b6000819050919050565b61104d83611018565b6110616110598261103a565b848454610fbc565b825550505050565b600090565b611076611069565b611081818484611044565b505050565b5b818110156110a55761109a60008261106e565b600181019050611087565b5050565b601f8211156110ea576110bb81610f87565b6110c484610f9c565b810160208510156110d3578190505b6110e76110df85610f9c565b830182611086565b50505b505050565b60008160020a8304905092915050565b6000611110600019846008026110ef565b1980831691505092915050565b600061112983836110ff565b9150826002028217905092915050565b61114282610f1c565b67ffffffffffffffff81111561115b5761115a6109ce565b5b6111658254610f56565b6111708282856110a9565b600060209050601f8311600181146111a35760008415611191578287015190505b61119b858261111d565b865550611203565b601f1984166111b186610f87565b60005b828110156111d9578489015182556001820191506020850194506020810190506111b4565b868310156111f657848901516111f2601f8916826110ff565b8355505b6001600288020188555050505b505050505050565b60006040820190506112206000830185610bda565b61122d6020830184610bda565b939250505056fea2646970667358221220c820f168596219b81b37c5fd2894664691d03baf2639a71c705d77e4b7409a8264736f6c63430008130033",
  "immutableReferences": {},
  "source": "// SPDX-License-Identifier: CC0-1.0\npragma solidity ^0.8.0;\n\nimport \"./interfaces/IERC6150.sol\";\n\n/**\n * @title MyNFTContract\n * @dev A smart contract for managing Hierarchical Non-Fungible Tokens (NFTs) - ERC6150 standard.\n * @notice This contract is not fully implemented. Please refer to the TODOs for pending functionality.\n */\n\ncontract MyNFTContract is IERC6150 {\n    struct NFT {\n        string name;\n        string description;\n        string image;\n        uint256 value;\n        uint256 parentId;\n        uint256[] childrenIds;\n    }\n\n    mapping(uint256 => NFT) private nfts;\n    mapping(uint256 => address) private tokenOwners;\n    mapping(uint256 => address) private tokenApprovals;\n    mapping(address => uint256[]) private ownedTokens;\n    mapping(address => mapping(address => bool)) private operatorApprovals;\n\n    uint256 private nextTokenId;\n    uint256 private nextChildTokenId; // New variable for child tokens\n\n    constructor() {\n        nextTokenId = 1;\n        nextChildTokenId = 1; // Initialize nextChildTokenId\n    }\n\n    // Rest of the contract...\n\n    function mint(\n        address to,\n        uint256 parentId,\n        string memory name,\n        string memory description,\n        string memory image,\n        uint256 value\n    ) external returns (uint256) {\n        uint256 tokenId;\n        if (parentId > 0) {\n            tokenId = nextChildTokenId;\n            nextChildTokenId++;\n        } else {\n            tokenId = nextTokenId;\n            nextTokenId++;\n        }\n\n        nfts[tokenId] = NFT({\n            name: name,\n            description: description,\n            image: image,\n            value: value,\n            parentId: parentId,\n            childrenIds: new uint256[](0)\n        });\n\n        tokenOwners[tokenId] = to;\n        ownedTokens[to].push(tokenId);\n\n        if (parentId > 0) {\n            nfts[parentId].childrenIds.push(tokenId);\n        }\n\n        emit Minted(msg.sender, to, parentId, tokenId);\n\n        return tokenId;\n    }\n\n    function parentOf(uint256 tokenId) external view override returns (uint256) {\n    }\n\n    function childrenOf(uint256 tokenId) external view override returns (uint256[] memory) {\n    }\n\n    function isRoot(uint256 tokenId) external view override returns (bool) {\n    }\n\n    function isLeaf(uint256 tokenId) external view override returns (bool) {\n    }\n\n    function approve(address to, uint256 tokenId) external override {\n    }\n\n    function balanceOf(address owner) external view override returns (uint256 balance) {\n    }\n\n    function getApproved(uint256 tokenId) external view override returns (address operator) {\n    }\n\n    function isApprovedForAll(address owner, address operator) external view override returns (bool) {\n    }\n\n    function ownerOf(uint256 tokenId) external view override returns (address owner) {\n    }\n\n    function safeTransferFrom(address from, address to, uint256 tokenId) external override {\n    }\n\n    function safeTransferFrom(address from, address to, uint256 tokenId, bytes calldata data) external override {\n    }\n\n    function setApprovalForAll(address operator, bool approved) external override {\n    }\n\n    function supportsInterface(bytes4 interfaceId) external view override returns (bool) {\n        return interfaceId == type(IERC6150).interfaceId;\n    }\n\n    function transferFrom(address from, address to, uint256 tokenId) external override {\n    }\n}\n",
  "sourcePath": "/Users/miniclip22/Documents/Cycloid/EDP/truffle-nft-hierarchy-poc working latest backup abstract/contracts/MyNFTContract.sol",
  "compiler": {
    "name": "solc",
    "version": "0.8.19+commit.7dd6d404.Emscripten.clang"
  },
  "schemaVersion": "3.4.13",
  "updatedAt": "2023-06-24T17:11:10.562Z",
  "networkType": "ethereum",
  "devdoc": {
    "details": "A smart contract for managing Hierarchical Non-Fungible Tokens (NFTs) - ERC6150 standard.",
    "events": {
      "Approval(address,address,uint256)": {
        "details": "Emitted when `owner` enables `approved` to manage the `tokenId` token."
      },
      "ApprovalForAll(address,address,bool)": {
        "details": "Emitted when `owner` enables or disables (`approved`) `operator` to manage all of its assets."
      },
      "Minted(address,address,uint256,uint256)": {
        "params": {
          "minter": "The address of minter",
          "parentId": "The id of parent token, if it's zero, it means minted `tokenId` is a root token.",
          "to": "The address received token",
          "tokenId": "The id of minted token, required to be greater than zero"
        }
      },
      "Transfer(address,address,uint256)": {
        "details": "Emitted when `tokenId` token is transferred from `from` to `to`."
      }
    },
    "kind": "dev",
    "methods": {
      "approve(address,uint256)": {
        "details": "Gives permission to `to` to transfer `tokenId` token to another account. The approval is cleared when the token is transferred. Only a single account can be approved at a time, so approving the zero address clears previous approvals. Requirements: - The caller must own the token or be an approved operator. - `tokenId` must exist. Emits an {Approval} event."
      },
      "balanceOf(address)": {
        "details": "Returns the number of tokens in ``owner``'s account."
      },
      "childrenOf(uint256)": {
        "params": {
          "tokenId": "The parent token"
        },
        "returns": {
          "_0": "The array of children tokens"
        }
      },
      "getApproved(uint256)": {
        "details": "Returns the account approved for `tokenId` token. Requirements: - `tokenId` must exist."
      },
      "isApprovedForAll(address,address)": {
        "details": "Returns if the `operator` is allowed to manage all of the assets of `owner`. See {setApprovalForAll}"
      },
      "isLeaf(uint256)": {
        "params": {
          "tokenId": "The token want to be checked"
        },
        "returns": {
          "_0": "Return `true` if it is a leaf token; if not, return `false`"
        }
      },
      "isRoot(uint256)": {
        "params": {
          "tokenId": "The token want to be checked"
        },
        "returns": {
          "_0": "Return `true` if it is a root token; if not, return `false`"
        }
      },
      "ownerOf(uint256)": {
        "details": "Returns the owner of the `tokenId` token. Requirements: - `tokenId` must exist."
      },
      "parentOf(uint256)": {
        "params": {
          "tokenId": "The child token"
        },
        "returns": {
          "_0": "The Parent token found"
        }
      },
      "safeTransferFrom(address,address,uint256)": {
        "details": "Safely transfers `tokenId` token from `from` to `to`, checking first that contract recipients are aware of the ERC721 protocol to prevent tokens from being forever locked. Requirements: - `from` cannot be the zero address. - `to` cannot be the zero address. - `tokenId` token must exist and be owned by `from`. - If the caller is not `from`, it must have been allowed to move this token by either {approve} or {setApprovalForAll}. - If `to` refers to a smart contract, it must implement {IERC721Receiver-onERC721Received}, which is called upon a safe transfer. Emits a {Transfer} event."
      },
      "safeTransferFrom(address,address,uint256,bytes)": {
        "details": "Safely transfers `tokenId` token from `from` to `to`. Requirements: - `from` cannot be the zero address. - `to` cannot be the zero address. - `tokenId` token must exist and be owned by `from`. - If the caller is not `from`, it must be approved to move this token by either {approve} or {setApprovalForAll}. - If `to` refers to a smart contract, it must implement {IERC721Receiver-onERC721Received}, which is called upon a safe transfer. Emits a {Transfer} event."
      },
      "setApprovalForAll(address,bool)": {
        "details": "Approve or remove `operator` as an operator for the caller. Operators can call {transferFrom} or {safeTransferFrom} for any token owned by the caller. Requirements: - The `operator` cannot be the caller. Emits an {ApprovalForAll} event."
      },
      "supportsInterface(bytes4)": {
        "details": "Returns true if this contract implements the interface defined by `interfaceId`. See the corresponding https://eips.ethereum.org/EIPS/eip-165#how-interfaces-are-identified[EIP section] to learn more about how these ids are created. This function call must use less than 30 000 gas."
      },
      "transferFrom(address,address,uint256)": {
        "details": "Transfers `tokenId` token from `from` to `to`. WARNING: Note that the caller is responsible to confirm that the recipient is capable of receiving ERC721 or else they may be permanently lost. Usage of {safeTransferFrom} prevents loss, though the caller must understand this adds an external call which potentially creates a reentrancy vulnerability. Requirements: - `from` cannot be the zero address. - `to` cannot be the zero address. - `tokenId` token must be owned by `from`. - If the caller is not `from`, it must be approved to move this token by either {approve} or {setApprovalForAll}. Emits a {Transfer} event."
      }
    },
    "title": "MyNFTContract",
    "version": 1
  },
  "userdoc": {
    "events": {
      "Minted(address,address,uint256,uint256)": {
        "notice": "Emitted when `tokenId` token under `parentId` is minted."
      }
    },
    "kind": "user",
    "methods": {
      "childrenOf(uint256)": {
        "notice": "Get the children tokens of `tokenId` token."
      },
      "isLeaf(uint256)": {
        "notice": "Check the `tokenId` token if it is a leaf token."
      },
      "isRoot(uint256)": {
        "notice": "Check the `tokenId` token if it is a root token."
      },
      "parentOf(uint256)": {
        "notice": "Get the parent token of `tokenId` token."
      }
    },
    "notice": "This contract is not fully implemented. Please refer to the TODOs for pending functionality.",
    "version": 1
  }
}